{
  "abi": [
    {
      "inputs": [
        {
          "internalType": "address",
          "name": "_verifierAddress",
          "type": "address"
        }
      ],
      "stateMutability": "nonpayable",
      "type": "constructor"
    },
    {
      "anonymous": false,
      "inputs": [
        {
          "indexed": false,
          "internalType": "address",
          "name": "sender",
          "type": "address"
        },
        {
          "indexed": false,
          "internalType": "bool",
          "name": "result",
          "type": "bool"
        }
      ],
      "name": "Proof",
      "type": "event"
    },
    {
      "inputs": [
        {
          "internalType": "uint256[2]",
          "name": "_pA",
          "type": "uint256[2]"
        },
        {
          "internalType": "uint256[2][2]",
          "name": "_pB",
          "type": "uint256[2][2]"
        },
        {
          "internalType": "uint256[2]",
          "name": "_pC",
          "type": "uint256[2]"
        },
        {
          "internalType": "uint256[1]",
          "name": "_pubSignals",
          "type": "uint256[1]"
        }
      ],
      "name": "submitProof",
      "outputs": [],
      "stateMutability": "nonpayable",
      "type": "function"
    },
    {
      "inputs": [],
      "name": "verifierAddress",
      "outputs": [
        {
          "internalType": "address",
          "name": "",
          "type": "address"
        }
      ],
      "stateMutability": "view",
      "type": "function"
    }
  ],
  "bytecode": {
    "object": "0x608060405234801561001057600080fd5b5060405161048d38038061048d83398101604081905261002f91610054565b600080546001600160a01b0319166001600160a01b0392909216919091179055610084565b60006020828403121561006657600080fd5b81516001600160a01b038116811461007d57600080fd5b9392505050565b6103fa806100936000396000f3fe608060405234801561001057600080fd5b50600436106100365760003560e01c806318bdffbb1461003b578063d7a6401b1461006a575b600080fd5b60005461004e906001600160a01b031681565b6040516001600160a01b03909116815260200160405180910390f35b61007d6100783660046101ed565b61007f565b005b600080546040516343753b4d60e01b81526001600160a01b03909116906343753b4d906100b69088908890889088906004016102f4565b602060405180830381865afa1580156100d3573d6000803e3d6000fd5b505050506040513d601f19601f820116820180604052508101906100f7919061039b565b6040805133815282151560208201529192507f973c8463e3b5afc45c3a05c0a7996c264f55577c7a40b1ae7a1c2f0709e66b55910160405180910390a15050505050565b634e487b7160e01b600052604160045260246000fd5b6040805190810167ffffffffffffffff811182821017156101745761017461013b565b60405290565b6040516020810167ffffffffffffffff811182821017156101745761017461013b565b600082601f8301126101ae57600080fd5b6101b6610151565b8060408401858111156101c857600080fd5b845b818110156101e25780358452602093840193016101ca565b509095945050505050565b60008060008061012080868803121561020557600080fd5b61020f878761019d565b9450604087605f88011261022257600080fd5b61022a610151565b8060c089018a81111561023c57600080fd5b838a015b81811015610261576102528c8261019d565b84526020909301928401610240565b5081975061026f8b8261019d565b9650505050508661011f87011261028557600080fd5b61028d61017a565b90860190808883111561029f57600080fd5b61010088015b838110156102bd5780358352602092830192016102a5565b509598949750929550505050565b8060005b60028110156102ee5781518452602093840193909101906001016102cf565b50505050565b610120810161030382876102cb565b60408083018660005b600280821061031b5750610356565b82518460005b8381101561033f578251825260209283019290910190600101610321565b50505092840192506020919091019060010161030c565b5050505061036760c08301856102cb565b61010082018360005b600181101561038f578151835260209283019290910190600101610370565b50505095945050505050565b6000602082840312156103ad57600080fd5b815180151581146103bd57600080fd5b939250505056fea2646970667358221220c01f0e46f787977447d8168d21fa41002f6351bc72f7708f90d413f256141ed664736f6c63430008130033",
    "linkReferences": {}
  },
  "methodIdentifiers": {
    "submitProof(uint256[2],uint256[2][2],uint256[2],uint256[1])": "d7a6401b",
    "verifierAddress()": "18bdffbb"
  },
  "id": 22
}